{
  "contractName": "Fruitshop",
  "abi": [
    {
      "inputs": [],
      "payable": false,
      "stateMutability": "nonpayable",
      "type": "constructor"
    },
    {
      "constant": false,
      "inputs": [],
      "name": "buyApple",
      "outputs": [],
      "payable": true,
      "stateMutability": "payable",
      "type": "function"
    },
    {
      "constant": true,
      "inputs": [],
      "name": "getMyApple",
      "outputs": [
        {
          "internalType": "uint256",
          "name": "",
          "type": "uint256"
        }
      ],
      "payable": false,
      "stateMutability": "view",
      "type": "function"
    },
    {
      "constant": false,
      "inputs": [
        {
          "internalType": "uint256",
          "name": "_appleprice",
          "type": "uint256"
        }
      ],
      "name": "sellApple",
      "outputs": [],
      "payable": true,
      "stateMutability": "payable",
      "type": "function"
    }
  ],
  "bytecode": "0x608060405234801561001057600080fd5b5061023b806100206000396000f3fe6080604052600436106100345760003560e01c8063284131c714610039578063aacddd7c14610043578063db54b74c1461006e575b600080fd5b61004161009c565b005b34801561004f57600080fd5b506100586100ec565b6040518082815260200191505060405180910390f35b61009a6004803603602081101561008457600080fd5b8101908080359060200190929190505050610132565b005b6000803373ffffffffffffffffffffffffffffffffffffffff1673ffffffffffffffffffffffffffffffffffffffff16815260200190815260200160002060008154809291906001019190505550565b60008060003373ffffffffffffffffffffffffffffffffffffffff1673ffffffffffffffffffffffffffffffffffffffff16815260200190815260200160002054905090565b6000816000803373ffffffffffffffffffffffffffffffffffffffff1673ffffffffffffffffffffffffffffffffffffffff1681526020019081526020016000205402905060008060003373ffffffffffffffffffffffffffffffffffffffff1673ffffffffffffffffffffffffffffffffffffffff168152602001908152602001600020819055503373ffffffffffffffffffffffffffffffffffffffff166108fc829081150290604051600060405180830381858888f19350505050158015610201573d6000803e3d6000fd5b50505056fea265627a7a723158202bfa079caace4cc645e4ec3328062de2ed5c845a7c6ef6545d8f0e1a9c36ed6864736f6c63430005100032",
  "source": "// SPDX-License-Identifier: MIT\npragma solidity >=0.4.22 <0.9.0;\n\n/* \n    1. 보낸 사람의 계정(주소)에서 사과를 총 몇개 가지고 있나. \n    2. 사과를 구매했을 때, 해당 계정(주소)에 사과를 추가해주는 코드 작성\n    3. 사과 판매시 내가 가지고 있는 사과*사과구매가격 만큼 토큰을 반환해주고 사과를 0개로 바꿔준다.\n    4. 내 사과를 반환해주는\n*/\n\ncontract Fruitshop {\n  mapping(address => uint) myApple; // 이게 첫번째 \n  constructor() public {\n  }\n  \n  function buyApple() payable public { // 두번째 사과 추가 코드\n     myApple[msg.sender]++;\n  }\n\n  function getMyApple() public view returns(uint){\n    return myApple[msg.sender];\n  }\n\n  function sellApple(uint _appleprice) payable public { // 판매하는\n    uint totalPrice = (myApple[msg.sender] * _appleprice);\n    myApple[msg.sender] = 0;\n    msg.sender.transfer(totalPrice); // vsc에서 솔리디티 해석해주는 것과 트러플에서 해석해주는 버전 차이로 에러나는?\n  }\n}\n\n",
  "sourcePath": "C:\\Users\\godtt\\OneDrive\\바탕 화면\\solidity\\Solidity-\\1014\\contracts\\Fruitshop.sol",
  "compiler": {
    "name": "solc",
    "version": "0.5.16+commit.9c3226ce.Emscripten.clang"
  },
  "schemaVersion": "3.4.3",
  "updatedAt": "2021-10-14T08:00:50.041Z",
  "networkType": "ethereum",
  "devdoc": {
    "methods": {}
  },
  "userdoc": {
    "methods": {}
  }
}